:100000000C945C000C9479000C9479000C947900A9
:100010000C9479000C9479000C9479000C9479007C
:100020000C9479000C9479000C9479000C9479006C
:100030000C9479000C9479000C9479000C9479005C
:100040000C943F010C9479000C9479000C94790085
:100050000C9479000C9479000C9479000C9479003C
:100060000C9479000C947900000000080002010053
:100070000003040700000000000000000000000072
:10008000250028002B0000000000240027002A0083
:10009000040404040404040402020202020203032E
:1000A0000303030301020408102040800102040836
:1000B000102001020408102011241FBECFEFD8E049
:1000C000DEBFCDBF11E0A0E0B1E0E0E2F4E002C0AD
:1000D00005900D92AA39B107D9F721E0AAE9B1E05C
:1000E00001C01D92A33AB207E1F70E9489010C9466
:1000F0000E020C9400003FB7F89480919F019091FC
:10010000A001A091A101B091A20126B5A89B05C0B4
:100110002F3F19F00196A11DB11D3FBFBA2FA92F86
:10012000982F8827BC01CD01620F711D811D911D83
:1001300042E0660F771F881F991F4A95D1F70895EF
:100140008F929F92AF92BF92CF92DF92EF92FF92E7
:100150000E947B004B015C0184EFC82EDD24D39408
:10016000E12CF12C0E947B00681979098A099B090E
:10017000683E734081059105A8F321E0C21AD108B9
:10018000E108F10888EE880E83E0981EA11CB11CDE
:10019000C114D104E104F10429F7FF90EF90DF903E
:1001A000CF90BF90AF909F908F900895CF93DF93A3
:1001B000ACE8B1E02EE0AC01249FC001259F900D7A
:1001C000112450E040E02D913D913327F901E85989
:1001D000FF4F7491F901EC55FF4F6491F901E0571D
:1001E000FF4FE491EE23F9F0EC01C40FD51FC0508E
:1001F000DF4F3881772339F0733041F1E8F4713003
:1002000059F1723069F1F0E0EE0FFF1FE458FF4F33
:10021000C591D4912FB7F894E88131112EC0609523
:100220006E2368832FBF4E5F5F4F4E30510509F03C
:10023000CACFDF91CF9108957730A9F07830C9F017
:10024000743009F7209180002F7D03C02091800039
:100250002F7720938000D7CF24B52F7724BDD3CF1D
:1002600024B52F7DFBCF2091B0002F772093B000D5
:10027000CACF2091B0002F7DF9CF6E2BD2CF1F9225
:100280000F920FB60F9211242F933F938F939F934A
:10029000AF93BF9380919B0190919C01A0919D0190
:1002A000B0919E0130919A0123E0230F2D3758F52C
:1002B0000196A11DB11D20939A0180939B019093FB
:1002C0009C01A0939D01B0939E0180919F0190910C
:1002D000A001A091A101B091A2010196A11DB11DA3
:1002E00080939F019093A001A093A101B093A201DC
:1002F000BF91AF919F918F913F912F910F900FBE22
:100300000F901F90189526E8230F0296A11DB11D8E
:10031000D2CF789484B5826084BD84B5816084BD79
:1003200085B5826085BD85B5816085BD80916E0093
:10033000816080936E0010928100809181008260C4
:100340008093810080918100816080938100809101
:1003500080008160809380008091B10084608093F0
:10036000B1008091B00081608093B00080917A00EC
:10037000846080937A0080917A00826080937A0012
:1003800080917A00816080937A0080917A00806801
:1003900080937A001092C100ACE8B1E08D919D91FC
:1003A0009927FC01EC55FF4F249180579F4FFC018A
:1003B0008491882399F090E0880F991FFC01EA57F7
:1003C000FF4FC591D491FC01E458FF4F8591949162
:1003D0008FB7F894E881E22BE8838FBFF1E0AA3968
:1003E000BF07E1F600E010E0D0E0C0E0CE010E94DF
:1003F000D6000E94A0002196CA30D105B9F7C9E005
:10040000D0E0CE010E94D6000E94A0002197C8F73C
:100410000115110549F30E940000E6CFF894FFCFC3
:1004200001000100010001000100010000000000C6
:1004300001000100000000000000000001000100B8
:1004400000000100010000000100010001000100A6
:100450000100000000000100000001000100000098
:100460000000010001000100000001000100000087
:100470000100010001000000010001000100010075
:100480000100010001000100000000000000000068
:100490000100010001000100010001000100010054
:1004A0000100010001000000010001000200030042
:0A04B0000400050006000700080024
:00000001FF
